{
  "_format": "hh-sol-artifact-1",
  "contractName": "NFTMarketplace",
  "sourceName": "contracts/NFTMarketplace.sol",
  "abi": [
    {
      "inputs": [],
      "stateMutability": "nonpayable",
      "type": "constructor"
    },
    {
      "anonymous": false,
      "inputs": [
        {
          "indexed": true,
          "internalType": "uint256",
          "name": "collectionId",
          "type": "uint256"
        },
        {
          "indexed": true,
          "internalType": "address",
          "name": "owner",
          "type": "address"
        },
        {
          "indexed": false,
          "internalType": "string",
          "name": "name",
          "type": "string"
        },
        {
          "indexed": false,
          "internalType": "string",
          "name": "description",
          "type": "string"
        },
        {
          "indexed": false,
          "internalType": "string",
          "name": "metadataURI",
          "type": "string"
        },
        {
          "indexed": false,
          "internalType": "uint256",
          "name": "price",
          "type": "uint256"
        }
      ],
      "name": "CollectionCreated",
      "type": "event"
    },
    {
      "anonymous": false,
      "inputs": [
        {
          "indexed": true,
          "internalType": "uint256",
          "name": "collectionId",
          "type": "uint256"
        }
      ],
      "name": "CollectionDeleted",
      "type": "event"
    },
    {
      "anonymous": false,
      "inputs": [
        {
          "indexed": true,
          "internalType": "uint256",
          "name": "collectionId",
          "type": "uint256"
        },
        {
          "indexed": false,
          "internalType": "string",
          "name": "name",
          "type": "string"
        },
        {
          "indexed": false,
          "internalType": "string",
          "name": "description",
          "type": "string"
        },
        {
          "indexed": false,
          "internalType": "string",
          "name": "metadataURI",
          "type": "string"
        },
        {
          "indexed": false,
          "internalType": "uint256",
          "name": "price",
          "type": "uint256"
        }
      ],
      "name": "CollectionUpdated",
      "type": "event"
    },
    {
      "anonymous": false,
      "inputs": [
        {
          "indexed": true,
          "internalType": "address",
          "name": "seller",
          "type": "address"
        },
        {
          "indexed": false,
          "internalType": "uint256",
          "name": "amount",
          "type": "uint256"
        }
      ],
      "name": "EarningsWithdrawn",
      "type": "event"
    },
    {
      "anonymous": false,
      "inputs": [
        {
          "indexed": true,
          "internalType": "uint256",
          "name": "listingId",
          "type": "uint256"
        },
        {
          "indexed": true,
          "internalType": "address",
          "name": "buyer",
          "type": "address"
        },
        {
          "indexed": true,
          "internalType": "address",
          "name": "nftContract",
          "type": "address"
        },
        {
          "indexed": false,
          "internalType": "uint256",
          "name": "tokenId",
          "type": "uint256"
        },
        {
          "indexed": false,
          "internalType": "uint256",
          "name": "price",
          "type": "uint256"
        }
      ],
      "name": "NFTBought",
      "type": "event"
    },
    {
      "anonymous": false,
      "inputs": [
        {
          "indexed": true,
          "internalType": "uint256",
          "name": "collectionId",
          "type": "uint256"
        },
        {
          "indexed": true,
          "internalType": "address",
          "name": "owner",
          "type": "address"
        },
        {
          "indexed": false,
          "internalType": "string",
          "name": "name",
          "type": "string"
        },
        {
          "indexed": false,
          "internalType": "string",
          "name": "description",
          "type": "string"
        },
        {
          "indexed": false,
          "internalType": "string",
          "name": "metadataURI",
          "type": "string"
        },
        {
          "indexed": false,
          "internalType": "uint256",
          "name": "price",
          "type": "uint256"
        }
      ],
      "name": "NFTCollectionCreated",
      "type": "event"
    },
    {
      "anonymous": false,
      "inputs": [
        {
          "indexed": true,
          "internalType": "uint256",
          "name": "collectionId",
          "type": "uint256"
        }
      ],
      "name": "NFTCollectionDeleted",
      "type": "event"
    },
    {
      "anonymous": false,
      "inputs": [
        {
          "indexed": true,
          "internalType": "uint256",
          "name": "collectionId",
          "type": "uint256"
        },
        {
          "indexed": true,
          "internalType": "address",
          "name": "owner",
          "type": "address"
        },
        {
          "indexed": false,
          "internalType": "address",
          "name": "nftContract",
          "type": "address"
        }
      ],
      "name": "NFTCollectionListed",
      "type": "event"
    },
    {
      "anonymous": false,
      "inputs": [
        {
          "indexed": true,
          "internalType": "uint256",
          "name": "collectionId",
          "type": "uint256"
        },
        {
          "indexed": false,
          "internalType": "string",
          "name": "name",
          "type": "string"
        },
        {
          "indexed": false,
          "internalType": "string",
          "name": "description",
          "type": "string"
        },
        {
          "indexed": false,
          "internalType": "string",
          "name": "metadataURI",
          "type": "string"
        },
        {
          "indexed": false,
          "internalType": "uint256",
          "name": "price",
          "type": "uint256"
        }
      ],
      "name": "NFTCollectionUpdated",
      "type": "event"
    },
    {
      "anonymous": false,
      "inputs": [
        {
          "indexed": true,
          "internalType": "uint256",
          "name": "collectionId",
          "type": "uint256"
        },
        {
          "indexed": false,
          "internalType": "bool",
          "name": "isVerified",
          "type": "bool"
        }
      ],
      "name": "NFTCollectionVerified",
      "type": "event"
    },
    {
      "anonymous": false,
      "inputs": [
        {
          "indexed": true,
          "internalType": "uint256",
          "name": "listingId",
          "type": "uint256"
        },
        {
          "indexed": true,
          "internalType": "address",
          "name": "seller",
          "type": "address"
        },
        {
          "indexed": true,
          "internalType": "address",
          "name": "nftContract",
          "type": "address"
        },
        {
          "indexed": false,
          "internalType": "uint256",
          "name": "tokenId",
          "type": "uint256"
        },
        {
          "indexed": false,
          "internalType": "uint256",
          "name": "price",
          "type": "uint256"
        },
        {
          "indexed": false,
          "internalType": "string",
          "name": "name",
          "type": "string"
        },
        {
          "indexed": false,
          "internalType": "string",
          "name": "metadataURI",
          "type": "string"
        },
        {
          "indexed": false,
          "internalType": "string",
          "name": "description",
          "type": "string"
        }
      ],
      "name": "NFTListed",
      "type": "event"
    },
    {
      "anonymous": false,
      "inputs": [
        {
          "indexed": true,
          "internalType": "uint256",
          "name": "listingId",
          "type": "uint256"
        },
        {
          "indexed": false,
          "internalType": "bool",
          "name": "isVerified",
          "type": "bool"
        }
      ],
      "name": "NFTVerified",
      "type": "event"
    },
    {
      "inputs": [
        {
          "internalType": "uint256",
          "name": "listingId",
          "type": "uint256"
        }
      ],
      "name": "buyNFT",
      "outputs": [],
      "stateMutability": "payable",
      "type": "function"
    },
    {
      "inputs": [
        {
          "internalType": "string",
          "name": "name",
          "type": "string"
        },
        {
          "internalType": "string",
          "name": "description",
          "type": "string"
        },
        {
          "internalType": "string",
          "name": "metadataURI",
          "type": "string"
        },
        {
          "internalType": "uint256",
          "name": "price",
          "type": "uint256"
        }
      ],
      "name": "createCollection",
      "outputs": [],
      "stateMutability": "nonpayable",
      "type": "function"
    },
    {
      "inputs": [
        {
          "internalType": "uint256",
          "name": "collectionId",
          "type": "uint256"
        }
      ],
      "name": "deleteCollection",
      "outputs": [],
      "stateMutability": "nonpayable",
      "type": "function"
    },
    {
      "inputs": [],
      "name": "getAdmin",
      "outputs": [
        {
          "internalType": "address",
          "name": "",
          "type": "address"
        }
      ],
      "stateMutability": "view",
      "type": "function"
    },
    {
      "inputs": [
        {
          "internalType": "uint256",
          "name": "collectionId",
          "type": "uint256"
        }
      ],
      "name": "getCollection",
      "outputs": [
        {
          "components": [
            {
              "internalType": "address",
              "name": "owner",
              "type": "address"
            },
            {
              "internalType": "string",
              "name": "name",
              "type": "string"
            },
            {
              "internalType": "string",
              "name": "description",
              "type": "string"
            },
            {
              "internalType": "string",
              "name": "metadataURI",
              "type": "string"
            },
            {
              "internalType": "uint256",
              "name": "price",
              "type": "uint256"
            },
            {
              "internalType": "uint256",
              "name": "createdAt",
              "type": "uint256"
            },
            {
              "internalType": "bool",
              "name": "isVerified",
              "type": "bool"
            }
          ],
          "internalType": "struct NFTMarketplace.Collection",
          "name": "",
          "type": "tuple"
        }
      ],
      "stateMutability": "view",
      "type": "function"
    },
    {
      "inputs": [
        {
          "internalType": "address",
          "name": "nftContract",
          "type": "address"
        }
      ],
      "name": "getCollectionStats",
      "outputs": [
        {
          "components": [
            {
              "internalType": "uint256",
              "name": "tradingVolume",
              "type": "uint256"
            },
            {
              "internalType": "uint256",
              "name": "lastUpdated",
              "type": "uint256"
            },
            {
              "internalType": "uint256",
              "name": "previousVolume",
              "type": "uint256"
            }
          ],
          "internalType": "struct NFTMarketplace.CollectionStats",
          "name": "",
          "type": "tuple"
        }
      ],
      "stateMutability": "view",
      "type": "function"
    },
    {
      "inputs": [
        {
          "internalType": "uint256",
          "name": "listingId",
          "type": "uint256"
        }
      ],
      "name": "getListing",
      "outputs": [
        {
          "components": [
            {
              "internalType": "address",
              "name": "seller",
              "type": "address"
            },
            {
              "internalType": "address",
              "name": "nftContract",
              "type": "address"
            },
            {
              "internalType": "uint256",
              "name": "tokenId",
              "type": "uint256"
            },
            {
              "internalType": "uint256",
              "name": "price",
              "type": "uint256"
            },
            {
              "internalType": "string",
              "name": "name",
              "type": "string"
            },
            {
              "internalType": "string",
              "name": "metadataURI",
              "type": "string"
            },
            {
              "internalType": "string",
              "name": "description",
              "type": "string"
            },
            {
              "internalType": "bool",
              "name": "isVerified",
              "type": "bool"
            }
          ],
          "internalType": "struct NFTMarketplace.Listing",
          "name": "",
          "type": "tuple"
        }
      ],
      "stateMutability": "view",
      "type": "function"
    },
    {
      "inputs": [],
      "name": "getRankings",
      "outputs": [
        {
          "internalType": "address[]",
          "name": "",
          "type": "address[]"
        }
      ],
      "stateMutability": "view",
      "type": "function"
    },
    {
      "inputs": [
        {
          "internalType": "address",
          "name": "seller",
          "type": "address"
        }
      ],
      "name": "getSellerEarnings",
      "outputs": [
        {
          "internalType": "uint256",
          "name": "",
          "type": "uint256"
        }
      ],
      "stateMutability": "view",
      "type": "function"
    },
    {
      "inputs": [
        {
          "internalType": "address",
          "name": "user",
          "type": "address"
        }
      ],
      "name": "getUserPurchases",
      "outputs": [
        {
          "internalType": "uint256[]",
          "name": "",
          "type": "uint256[]"
        }
      ],
      "stateMutability": "view",
      "type": "function"
    },
    {
      "inputs": [
        {
          "internalType": "address",
          "name": "nftContract",
          "type": "address"
        },
        {
          "internalType": "uint256",
          "name": "tokenId",
          "type": "uint256"
        },
        {
          "internalType": "uint256",
          "name": "price",
          "type": "uint256"
        },
        {
          "internalType": "string",
          "name": "name",
          "type": "string"
        },
        {
          "internalType": "string",
          "name": "metadataURI",
          "type": "string"
        },
        {
          "internalType": "string",
          "name": "description",
          "type": "string"
        },
        {
          "internalType": "bool",
          "name": "isVerified",
          "type": "bool"
        }
      ],
      "name": "listNFT",
      "outputs": [],
      "stateMutability": "nonpayable",
      "type": "function"
    },
    {
      "inputs": [
        {
          "internalType": "uint256",
          "name": "collectionId",
          "type": "uint256"
        },
        {
          "internalType": "string",
          "name": "name",
          "type": "string"
        },
        {
          "internalType": "string",
          "name": "description",
          "type": "string"
        },
        {
          "internalType": "string",
          "name": "metadataURI",
          "type": "string"
        },
        {
          "internalType": "uint256",
          "name": "price",
          "type": "uint256"
        }
      ],
      "name": "updateCollection",
      "outputs": [],
      "stateMutability": "nonpayable",
      "type": "function"
    },
    {
      "inputs": [
        {
          "internalType": "uint256",
          "name": "listingId",
          "type": "uint256"
        },
        {
          "internalType": "uint256",
          "name": "price",
          "type": "uint256"
        },
        {
          "internalType": "string",
          "name": "name",
          "type": "string"
        },
        {
          "internalType": "string",
          "name": "metadataURI",
          "type": "string"
        },
        {
          "internalType": "string",
          "name": "description",
          "type": "string"
        }
      ],
      "name": "updateNFT",
      "outputs": [],
      "stateMutability": "nonpayable",
      "type": "function"
    },
    {
      "inputs": [
        {
          "internalType": "uint256",
          "name": "collectionId",
          "type": "uint256"
        }
      ],
      "name": "verifyCollection",
      "outputs": [],
      "stateMutability": "nonpayable",
      "type": "function"
    },
    {
      "inputs": [
        {
          "internalType": "uint256",
          "name": "listingId",
          "type": "uint256"
        }
      ],
      "name": "verifyNFT",
      "outputs": [],
      "stateMutability": "nonpayable",
      "type": "function"
    },
    {
      "inputs": [],
      "name": "withdrawEarnings",
      "outputs": [],
      "stateMutability": "nonpayable",
      "type": "function"
    }
  ],
  "bytecode": "0x608060405234801561001057600080fd5b50600780546001600160a01b0319163317905561263b806100326000396000f3fe6080604052600436106100f35760003560e01c806386b301761161008a578063b7c6fe3611610059578063b7c6fe36146102b3578063c6e5d8f6146102d3578063dc1c22b814610300578063e63794181461032057600080fd5b806386b301761461021a578063a42c587a1461023a578063ad4c40961461025a578063b73c6ce91461029e57600080fd5b80632c83b4b2116100c65780632c83b4b21461019057806351ed8288146101b25780635a1f3c28146101c55780636e9960c3146101f257600080fd5b80630e882fd3146100f85780630f99a0a51461011a578063107a274a1461013a57806318d3762014610170575b600080fd5b34801561010457600080fd5b50610118610113366004611c63565b610362565b005b34801561012657600080fd5b50610118610135366004611d06565b6105b9565b34801561014657600080fd5b5061015a610155366004611db1565b6106f0565b6040516101679190611e10565b60405180910390f35b34801561017c57600080fd5b5061011861018b366004611db1565b61096c565b34801561019c57600080fd5b506101a5610a76565b6040516101679190611ed2565b6101186101c0366004611db1565b610b59565b3480156101d157600080fd5b506101e56101e0366004611db1565b610f9d565b6040516101679190611f1f565b3480156101fe57600080fd5b506007546040516001600160a01b039091168152602001610167565b34801561022657600080fd5b50610118610235366004611fcc565b61122f565b34801561024657600080fd5b50610118610255366004611db1565b61168c565b34801561026657600080fd5b506102906102753660046120a4565b6001600160a01b031660009081526004602052604090205490565b604051908152602001610167565b3480156102aa57600080fd5b50610118611780565b3480156102bf57600080fd5b506101186102ce366004611db1565b611851565b3480156102df57600080fd5b506102f36102ee3660046120a4565b611943565b60405161016791906120c8565b34801561030c57600080fd5b5061011861031b366004612100565b6119af565b34801561032c57600080fd5b5061034061033b3660046120a4565b611b1b565b6040805182518152602080840151908201529181015190820152606001610167565b6007546001600160a01b031633146103955760405162461bcd60e51b815260040161038c906121ad565b60405180910390fd5b6509184e72a0008110156103db5760405162461bcd60e51b815260206004820152600d60248201526c507269636520746f6f206c6f7760981b604482015260640161038c565b6040518060e00160405280336001600160a01b0316815260200188888080601f016020809104026020016040519081016040528093929190818152602001838380828437600092019190915250505090825250604080516020601f890181900481028201810190925287815291810191908890889081908401838280828437600092019190915250505090825250604080516020601f87018190048102820181019092528581529181019190869086908190840183828082843760009201829052509385525050506020808301859052426040808501919091526060909301829052600354825260028152919020825181546001600160a01b0319166001600160a01b039091161781559082015160018201906104f8908261228e565b506040820151600282019061050d908261228e565b5060608201516003820190610522908261228e565b506080820151600482015560a0820151600582015560c0909101516006909101805460ff19169115159190911790556003546040513391907f5e4b3a0fb63342b938f4f873f16127a2687698a0eb8c0eba5e470b32bba9d85b90610593908b908b908b908b908b908b908b90612377565b60405180910390a3600380549060006105ab836123de565b919050555050505050505050565b6007546001600160a01b031633146105e35760405162461bcd60e51b815260040161038c906121ad565b600088815260026020526040812060018101805491929161060390612205565b9050116106225760405162461bcd60e51b815260040161038c906123f7565b6509184e72a0008210156106685760405162461bcd60e51b815260206004820152600d60248201526c507269636520746f6f206c6f7760981b604482015260640161038c565b60018101610677888a8361242e565b506002810161068786888361242e565b506003810161069784868361242e565b50818160040181905550887f8872146a4067b5214dda2bacff6a27b4fc5148ecfb522321470b050fac7a1920898989898989896040516106dd9796959493929190612377565b60405180910390a2505050505050505050565b61074c60405180610100016040528060006001600160a01b0316815260200160006001600160a01b0316815260200160008152602001600081526020016060815260200160608152602001606081526020016000151581525090565b6000828152602081815260409182902082516101008101845281546001600160a01b03908116825260018301541692810192909252600281015492820192909252600382015460608201526004820180549192916080840191906107af90612205565b80601f01602080910402602001604051908101604052809291908181526020018280546107db90612205565b80156108285780601f106107fd57610100808354040283529160200191610828565b820191906000526020600020905b81548152906001019060200180831161080b57829003601f168201915b5050505050815260200160058201805461084190612205565b80601f016020809104026020016040519081016040528092919081815260200182805461086d90612205565b80156108ba5780601f1061088f576101008083540402835291602001916108ba565b820191906000526020600020905b81548152906001019060200180831161089d57829003601f168201915b505050505081526020016006820180546108d390612205565b80601f01602080910402602001604051908101604052809291908181526020018280546108ff90612205565b801561094c5780601f106109215761010080835404028352916020019161094c565b820191906000526020600020905b81548152906001019060200180831161092f57829003601f168201915b50505091835250506007919091015460ff16151560209091015292915050565b6007546001600160a01b031633146109965760405162461bcd60e51b815260040161038c906121ad565b60008181526002602052604081206001810180549192916109b690612205565b9050116109d55760405162461bcd60e51b815260040161038c906123f7565b600681015460ff1615610a2a5760405162461bcd60e51b815260206004820152601e60248201527f436f6c6c656374696f6e20697320616c72656164792076657269666965640000604482015260640161038c565b60068101805460ff1916600190811790915560405190815282907fee0368a01ced01529e896b459a4ee982ae09c5b96c6b69acacc6f87802d51b35906020015b60405180910390a25050565b60035460609060008167ffffffffffffffff811115610a9757610a976121ef565b604051908082528060200260200182016040528015610ac0578160200160208202803683370190505b5090506000805b83811015610b505760008181526002602052604090206006015460ff1615610b3e5760008181526002602052604090205483516001600160a01b0390911690849084908110610b1857610b186124ef565b6001600160a01b039092166020928302919091019091015281610b3a816123de565b9250505b80610b48816123de565b915050610ac7565b50909392505050565b6000818152602081905260409020600301548190610b895760405162461bcd60e51b815260040161038c90612505565b60008281526020818152604080832081516101008101835281546001600160a01b0390811682526001830154169381019390935260028101549183019190915260038101546060830152600481018054608084019190610be890612205565b80601f0160208091040260200160405190810160405280929190818152602001828054610c1490612205565b8015610c615780601f10610c3657610100808354040283529160200191610c61565b820191906000526020600020905b815481529060010190602001808311610c4457829003601f168201915b50505050508152602001600582018054610c7a90612205565b80601f0160208091040260200160405190810160405280929190818152602001828054610ca690612205565b8015610cf35780601f10610cc857610100808354040283529160200191610cf3565b820191906000526020600020905b815481529060010190602001808311610cd657829003601f168201915b50505050508152602001600682018054610d0c90612205565b80601f0160208091040260200160405190810160405280929190818152602001828054610d3890612205565b8015610d855780601f10610d5a57610100808354040283529160200191610d85565b820191906000526020600020905b815481529060010190602001808311610d6857829003601f168201915b50505091835250506007919091015460ff1615156020909101526060810151909150341015610e015760405162461bcd60e51b815260206004820152602260248201527f496e73756666696369656e742066756e647320746f206275792074686973204e604482015261119560f21b606482015260840161038c565b602081015160408083015190516323b872dd60e01b815230600482015233602482015260448101919091526001600160a01b03909116906323b872dd90606401600060405180830381600087803b158015610e5b57600080fd5b505af1158015610e6f573d6000803e3d6000fd5b50505050610e8581602001518260600151611b81565b80516001600160a01b031660009081526004602052604081208054349290610eae908490612535565b9091555050336000818152600560209081526040808320805460018101825590845292829020909201869055838101518483015160608601518451918252928101929092526001600160a01b0316929186917f5f862e4813b30715853ccd2414208bbbf19dab4f9e8d3f41fe52a56de20167b5910160405180910390a4600083815260208190526040812080546001600160a01b031990811682556001820180549091169055600281018290556003810182905590610f706004830182611bc4565b610f7e600583016000611bc4565b610f8c600683016000611bc4565b50600701805460ff19169055505050565b610fe86040518060e0016040528060006001600160a01b0316815260200160608152602001606081526020016060815260200160008152602001600081526020016000151581525090565b6000828152600260205260408120600101805461100490612205565b9050116110235760405162461bcd60e51b815260040161038c906123f7565b600082815260026020908152604091829020825160e0810190935280546001600160a01b03168352600181018054919284019161105f90612205565b80601f016020809104026020016040519081016040528092919081815260200182805461108b90612205565b80156110d85780601f106110ad576101008083540402835291602001916110d8565b820191906000526020600020905b8154815290600101906020018083116110bb57829003601f168201915b505050505081526020016002820180546110f190612205565b80601f016020809104026020016040519081016040528092919081815260200182805461111d90612205565b801561116a5780601f1061113f5761010080835404028352916020019161116a565b820191906000526020600020905b81548152906001019060200180831161114d57829003601f168201915b5050505050815260200160038201805461118390612205565b80601f01602080910402602001604051908101604052809291908181526020018280546111af90612205565b80156111fc5780601f106111d1576101008083540402835291602001916111fc565b820191906000526020600020905b8154815290600101906020018083116111df57829003601f168201915b5050509183525050600482015460208201526005820154604082015260069091015460ff16151560609091015292915050565b6040516331a9108f60e11b8152600481018a90528a908a90339081906001600160a01b03851690636352211e90602401602060405180830381865afa15801561127c573d6000803e3d6000fd5b505050506040513d601f19601f820116820180604052508101906112a0919061254e565b6001600160a01b0316146113005760405162461bcd60e51b815260206004820152602160248201527f596f7520617265206e6f7420746865206f776e6572206f662074686973204e466044820152601560fa1b606482015260840161038c565b64e8d4a510008b10156113255760405162461bcd60e51b815260040161038c9061256b565b60405163020604bf60e21b8152600481018d905230906001600160a01b038f169063081812fc90602401602060405180830381865afa15801561136c573d6000803e3d6000fd5b505050506040513d601f19601f82011682018060405250810190611390919061254e565b6001600160a01b0316146114035760405162461bcd60e51b815260206004820152603460248201527f4e4654206d75737420626520617070726f76656420666f72207472616e7366656044820152737220746f20746865206d61726b6574706c61636560601b606482015260840161038c565b6040516323b872dd60e01b8152336004820152306024820152604481018d90526001600160a01b038e16906323b872dd90606401600060405180830381600087803b15801561145157600080fd5b505af1158015611465573d6000803e3d6000fd5b50505050604051806101000160405280336001600160a01b031681526020018e6001600160a01b031681526020018d81526020018c81526020018b8b8080601f016020809104026020016040519081016040528093929190818152602001838380828437600092019190915250505090825250604080516020601f8c018190048102820181019092528a815291810191908b908b9081908401838280828437600092019190915250505090825250604080516020601f8a01819004810282018101909252888152918101919089908990819084018382808284376000920182905250938552505050861515602092830152600180548252818352604091829020845181546001600160a01b03199081166001600160a01b03928316178355948601519282018054909516921691909117909255820151600282015560608201516003820155608082015160048201906115be908261228e565b5060a082015160058201906115d3908261228e565b5060c082015160068201906115e8908261228e565b5060e08201518160070160006101000a81548160ff0219169083151502179055509050508c6001600160a01b0316336001600160a01b03166001547f1d103554f260c1704c9064d5925ee6b2b1e53812671e239eb0920cd5f6b251eb8f8f8f8f8f8f8f8f6040516116609897969594939291906125ae565b60405180910390a460018054906000611678836123de565b919050555050505050505050505050505050565b6007546001600160a01b031633146116b65760405162461bcd60e51b815260040161038c906121ad565b600081815260026020526040812060010180546116d290612205565b9050116116f15760405162461bcd60e51b815260040161038c906123f7565b600081815260026020526040812080546001600160a01b03191681559061171b6001830182611bc4565b611729600283016000611bc4565b611737600383016000611bc4565b50600060048201819055600582018190556006909101805460ff1916905560405182917fd68793b9611a90aecead4ccbf04fffbbc7a72dadf5832a23e63c40645b2875b191a250565b33600090815260046020526040902054806117dd5760405162461bcd60e51b815260206004820181905260248201527f596f752068617665206e6f206561726e696e677320746f207769746864726177604482015260640161038c565b336000818152600460205260408082208290555183156108fc0291849190818181858888f19350505050158015611818573d6000803e3d6000fd5b5060405181815233907f48dc35af7b45e2a81fffad55f6e2fafacdb1d3d0d50d24ebdc16324f5ba757f19060200160405180910390a250565b6007546001600160a01b0316331461187b5760405162461bcd60e51b815260040161038c906121ad565b600081815260208190526040902060038101546118aa5760405162461bcd60e51b815260040161038c90612505565b600781015460ff16156118ff5760405162461bcd60e51b815260206004820152601760248201527f4e465420697320616c7265616479207665726966696564000000000000000000604482015260640161038c565b60078101805460ff1916600190811790915560405190815282907f4727b85a09e6ca94a7e26b46423373a951492773e32fbefde21a3ca64483035190602001610a6a565b6001600160a01b0381166000908152600560209081526040918290208054835181840281018401909452808452606093928301828280156119a357602002820191906000526020600020905b81548152602001906001019080831161198f575b50505050509050919050565b60008881526020819052604090206003015488906119df5760405162461bcd60e51b815260040161038c90612505565b600089815260208190526040902080546001600160a01b03163314611a555760405162461bcd60e51b815260206004820152602660248201527f4f6e6c79207468652073656c6c65722063616e2075706461746520746865206c604482015265697374696e6760d01b606482015260840161038c565b64e8d4a51000891015611a7a5760405162461bcd60e51b815260040161038c9061256b565b6003810189905560048101611a90888a8361242e565b5060058101611aa086888361242e565b5060068101611ab084868361242e565b50600181015460028201546040516001600160a01b039092169133918d917f1d103554f260c1704c9064d5925ee6b2b1e53812671e239eb0920cd5f6b251eb91611b07918f908f908f908f908f908f908f906125ae565b60405180910390a450505050505050505050565b611b3f60405180606001604052806000815260200160008152602001600081525090565b506001600160a01b0316600090815260066020908152604091829020825160608101845281548152600182015492810192909252600201549181019190915290565b6001600160a01b038216600090815260066020526040812080546002820181905590918391839190611bb4908490612535565b9091555050426001909101555050565b508054611bd090612205565b6000825580601f10611be0575050565b601f016020900490600052602060002090810190611bfe9190611c01565b50565b5b80821115611c165760008155600101611c02565b5090565b60008083601f840112611c2c57600080fd5b50813567ffffffffffffffff811115611c4457600080fd5b602083019150836020828501011115611c5c57600080fd5b9250929050565b60008060008060008060006080888a031215611c7e57600080fd5b873567ffffffffffffffff80821115611c9657600080fd5b611ca28b838c01611c1a565b909950975060208a0135915080821115611cbb57600080fd5b611cc78b838c01611c1a565b909750955060408a0135915080821115611ce057600080fd5b50611ced8a828b01611c1a565b989b979a50959894979596606090950135949350505050565b60008060008060008060008060a0898b031215611d2257600080fd5b88359750602089013567ffffffffffffffff80821115611d4157600080fd5b611d4d8c838d01611c1a565b909950975060408b0135915080821115611d6657600080fd5b611d728c838d01611c1a565b909750955060608b0135915080821115611d8b57600080fd5b50611d988b828c01611c1a565b999c989b50969995989497949560800135949350505050565b600060208284031215611dc357600080fd5b5035919050565b6000815180845260005b81811015611df057602081850181015186830182015201611dd4565b506000602082860101526020601f19601f83011685010191505092915050565b60208152611e2a6020820183516001600160a01b03169052565b60006020830151611e4660408401826001600160a01b03169052565b50604083015160608301526060830151608083015260808301516101008060a0850152611e77610120850183611dca565b915060a0850151601f19808685030160c0870152611e958483611dca565b935060c08701519150808685030160e087015250611eb38382611dca565b92505060e0850151611ec88286018215159052565b5090949350505050565b6020808252825182820181905260009190848201906040850190845b81811015611f135783516001600160a01b031683529284019291840191600101611eee565b50909695505050505050565b602080825282516001600160a01b03168282015282015160e06040830152600090611f4e610100840182611dca565b90506040840151601f1980858403016060860152611f6c8383611dca565b9250606086015191508085840301608086015250611f8a8282611dca565b915050608084015160a084015260a084015160c084015260c0840151151560e08401528091505092915050565b6001600160a01b0381168114611bfe57600080fd5b60008060008060008060008060008060e08b8d031215611feb57600080fd5b8a35611ff681611fb7565b995060208b0135985060408b0135975060608b013567ffffffffffffffff8082111561202157600080fd5b61202d8e838f01611c1a565b909950975060808d013591508082111561204657600080fd5b6120528e838f01611c1a565b909750955060a08d013591508082111561206b57600080fd5b506120788d828e01611c1a565b90945092505060c08b0135801515811461209157600080fd5b809150509295989b9194979a5092959850565b6000602082840312156120b657600080fd5b81356120c181611fb7565b9392505050565b6020808252825182820181905260009190848201906040850190845b81811015611f13578351835292840192918401916001016120e4565b60008060008060008060008060a0898b03121561211c57600080fd5b8835975060208901359650604089013567ffffffffffffffff8082111561214257600080fd5b61214e8c838d01611c1a565b909850965060608b013591508082111561216757600080fd5b6121738c838d01611c1a565b909650945060808b013591508082111561218c57600080fd5b506121998b828c01611c1a565b999c989b5096995094979396929594505050565b60208082526022908201527f4f6e6c792061646d696e2063616e20706572666f726d2074686973206163746960408201526137b760f11b606082015260800190565b634e487b7160e01b600052604160045260246000fd5b600181811c9082168061221957607f821691505b60208210810361223957634e487b7160e01b600052602260045260246000fd5b50919050565b601f82111561228957600081815260208120601f850160051c810160208610156122665750805b601f850160051c820191505b8181101561228557828155600101612272565b5050505b505050565b815167ffffffffffffffff8111156122a8576122a86121ef565b6122bc816122b68454612205565b8461223f565b602080601f8311600181146122f157600084156122d95750858301515b600019600386901b1c1916600185901b178555612285565b600085815260208120601f198616915b8281101561232057888601518255948401946001909101908401612301565b508582101561233e5787850151600019600388901b60f8161c191681555b5050505050600190811b01905550565b81835281816020850137506000828201602090810191909152601f909101601f19169091010190565b60808152600061238b60808301898b61234e565b828103602084015261239e81888a61234e565b905082810360408401526123b381868861234e565b91505082606083015298975050505050505050565b634e487b7160e01b600052601160045260246000fd5b6000600182016123f0576123f06123c8565b5060010190565b60208082526019908201527f436f6c6c656374696f6e20646f6573206e6f7420657869737400000000000000604082015260600190565b67ffffffffffffffff831115612446576124466121ef565b61245a836124548354612205565b8361223f565b6000601f84116001811461248e57600085156124765750838201355b600019600387901b1c1916600186901b1783556124e8565b600083815260209020601f19861690835b828110156124bf578685013582556020948501946001909201910161249f565b50868210156124dc5760001960f88860031b161c19848701351681555b505060018560011b0183555b5050505050565b634e487b7160e01b600052603260045260246000fd5b602080825260169082015275151a1a5cc8139195081a5cc81b9bdd081b1a5cdd195960521b604082015260600190565b80820180821115612548576125486123c8565b92915050565b60006020828403121561256057600080fd5b81516120c181611fb7565b60208082526023908201527f5072696365206d757374206265206174206c6561737420302e3030303030312060408201526208aa8960eb1b606082015260800190565b88815287602082015260a0604082015260006125ce60a08301888a61234e565b82810360608401526125e181878961234e565b905082810360808401526125f681858761234e565b9b9a505050505050505050505056fea2646970667358221220fa23a1765696d3a54e10f32ca4221df650a7ca1db18b031d1179209aea5564ac64736f6c63430008140033",
  "linkReferences": {},
  "deployedLinkReferences": {}
}